:100000000C9434000C943E000C943E000C943E0082
:100010000C943E000C943E000C943E000C943E0068
:100020000C943E000C943E000C943E000C943E0058
:100030000C943E000C943E000C943E000C943E0048
:100040000C943E000C943E000C943E000C943E0038
:100050000C943E000C943E000C943E000C943E0028
:100060000C943E000C943E0011241FBECFEFD8E04C
:10007000DEBFCDBF0E9498000C94A3000C9400003A
:10008000289A83E58A95F1F70000289808951F9330
:10009000CF93DF93EC01672B09F0459A18B1107FDD
:1000A000CE0124E0959587952A95E1F78F70812BF5
:1000B00088B90E944000CF70C12BC8B9DF91CF91A1
:1000C0001F910C9440008A3011F08D3031F470E0B3
:1000D00060E080EC90E00C94470061E070E0082E56
:1000E000000C990BF8CF70E060E080E290E00E9495
:1000F000470070E060E088E290E00E94470070E016
:1001000060E08CE090E00E94470070E060E08EE0EC
:1001100090E00E94470070E060E081E090E00E9483
:10012000470085EA9EE00197F1F700C000000895BE
:100130008FE387B981E084B90E94730088E590E07D
:0A0140000E946300FFCFF894FFCF88
:00000001FF
